:100000000C94FF010C9446020C9446020C94460298
:100010000C9446020C9446020C9446020C94460240
:100020000C9446020C9446020C9430140C946C13FD
:100030000C94CD1B0C9446020C9446020C94460280
:100040000C9446020C9446020C9446020C94460210
:100050000C9446020C94E01A0C9446020C9446024E
:100060000C9446020C9446020C9446020C944602F0
:100070000C9446020C9446020C9446020C944602E0
:100080000C9446020C9446020C9446020C944602D0
:100090000C9446020C9446020C9446020C944602C0
:1000A0000C9446020C9446020C94460252095209E2
:1000B0008C098C09DF09FB098D0B8D0B060AE40AFC
:1000C000F50AF50A7A11A1114E13A1114E13ED1183
:1000D00010124E1311132013131D131D261D261D60
:1000E0001C1D261D261D261D131D131D211D261D2D
:1000F000261D211D44454255473A206469736162BB
:100100006C65642E0A0044454255473A20656E618D
:10011000626C65642E0A000A0007001300370008AD
:10012000000400180012000600360009000C000D43
:100130000050004F000E000A0025303862003A20BF
:100140000025303258000A722F63203031323334A8
:100150003536370A000A0025303258006B6579625F
:100160006F6172645F7365745F6C65643A20005BF5
:10017000735D004B6579626F6172642073746172A4
:10018000742E0A000631FF0974A1010975150026B5
:10019000FF009520750881020976150026FF00955D
:1001A0002075089102C005010902A101850209011B
:1001B000A1000509190129051500250195057501FD
:1001C000810295017503810105010930093115810D
:1001D000257F95027508810609381581257F9501CF
:1001E00075088106050C0A38021581257F95017571
:1001F000088106C0C005010980A101850319012AF3
:10020000B700150126B700950175108100C0050CD7
:100210000901A101850419012AA002150126A002E5
:10022000950175108100C005010906A1018505052C
:100230000719E029E71500250195087501810205D8
:1002400007190029EF1500250195F07501810205B8
:10025000081901290595057501910295017503910C
:1002600001C005010906A101050719E029E71500EC
:100270002501950875018102950175088101050721
:10028000190029FF150026FF009506750881000555
:1002900008190129059505750191029501750391CC
:1002A00001C05B435D005B445D005B535D005B57D9
:1002B0005D005B525D0009025B00030100A0FA09CA
:1002C0000400000103010100092111010001224085
:1002D000000705810308000A09040100010300006A
:1002E0000009211101000122BC0007058203200042
:1002F0000A090402000203000000092111010001A3
:1003000022220007058303200001070503032000C4
:10031000011201100100000008756F620101000167
:10032000020301040330000000100353007700654E
:1003300000650074003100360000001C03310075B8
:1003400000700020004B006500790062006F0061C2
:10035000007200640073000000040309040A002511
:1003600030325820006B6579626F6172645F72652C
:10037000706F72743A20006164645F6B65795F62CC
:1003800069743A2063616E2774206164643A2025A1
:100390003032580A0064656C5F6B65795F6269741E
:1003A0003A2063616E27742064656C3A20253032F0
:1003B000580A00290A002575002F002575005D28C0
:1003C0000025640020002564002000256400200032
:1003D0002564007C0025303258006D6F7573656BA5
:1003E0006579205B62746E7C782079207620685D68
:1003F000287265702F61636C293A205B000011241C
:100400001FBECFEFDAE0DEBFCDBF04B603FE27C0CC
:100410008091390290913A02A0913B02B0913C0246
:100420008730904BA740B04BD1F410923902109214
:100430003A0210923B0210923C0214BE84B7877FAE
:1004400084BF0FB6F894A89580916000886180936E
:100450006000109260000FBEE0E0F8E3099511E043
:10046000A0E0B1E0E4E3FEE302C005900D92A43603
:10047000B107D9F722E0A4E6B1E001C01D92A9338B
:10048000B207E1F70E944D0D0C94181F0C94000068
:10049000FF93EF93E0916401F0916501309709F0CB
:1004A0000995EF91FF910895FC018591803011F03D
:1004B000EFDFFBCF0895FF27E0E230E247FF0CC0FB
:1004C000419597FF09C0EDE26095709580959095F4
:1004D000611D711D811D911D27FF02C0219530E313
:1004E00050E2AA27660F771F881F991FAA1FA4171B
:1004F00010F0A41B63955A95A9F7AA3008F0A95FDC
:10050000A05DAF93F395611571058105910541F7E4
:10051000ED3211F4EF93F395F21718F43F93F3953E
:10052000FBCF8F91B5DFFA95E1F70895E991F99145
:100530008591803021F0853219F0AADFF9CF089536
:1005400020E0E89455915532C1F3503311F468948A
:1005500055915A3348F4505390F3220F022E220F34
:10056000220F200D250FF4CF0EF42195899199913A
:10057000533619F3533729F1533559F1BC01882704
:100580009927E8945C3621F4899199916894559162
:10059000543639F446EF7EF077FF0DC08FEF9FEFB2
:1005A0000AC055374AE039F0583540E121F052365B
:1005B00042E009F00895FF93EF937DDFEF91FF9103
:1005C000B7CFFF93EF93FC0181918030B9F360DFE7
:1005D000FBCFFF93EF9368DFF1CFDF93CF93CDB7DE
:1005E000DEB72596A3DFCF91DF91089590917A0130
:1005F00092FF0DC0282F2871283019F4877F84605E
:1006000006C0282F2471243011F48B7F886093FF5B
:100610000DC0282F2871283119F4877E846106C007
:10062000282F2471243111F48B7E886120917B0165
:1006300020FF0DC0382F3871383019F4877F816062
:1006400006C0382F3171313011F48E7F886021FF60
:100650000DC0282F2871283119F4877E816106C0CA
:10066000282F2171213111F48E7E886194FD877EBF
:1006700008950F931F93CF93DF93C42FD22FFC01C4
:1006800082818823C9F040936F010E94151B9093CB
:100690006A018093690180E28C0F883008F05EC0A7
:1006A000C77081E001C0880FCA95EAF7DF91CF914A
:1006B0001F910F910C94671D80916F0148133EC0EC
:1006C0008091690190916A010E94061B883C910506
:1006D000A8F510E21D0FCD17B9F080E28C0F88301D
:1006E00040F4C77081E001C0880FCA95EAF70E9404
:1006F0005C1D183048F481E09D2F977001C0880F71
:100700009A95EAF70E94671D802F0E94D81D093331
:1007100049F4FFEF27EE83E0F15020408040E1F7FD
:1007200000C00000802F0E94711D1830B8F4D770EF
:1007300081E001C0880FDA95EAF70AC080E28C0FE9
:10074000883060F4C77081E001C0880FCA95EAF76D
:10075000DF91CF911F910F910C945C1DDF91CF9190
:100760001F910F9108951F93CF93DF93CDB7DEB7FD
:1007700067970FB6F894DEBF0FBECDBF4B8B5C8B77
:100780006D8B7E8B8F8B86E09E01235F3F4FD9015F
:10079000E82F1D92EA95E9F795E0FE017396D901DD
:1007A00001900D929A95E1F7F901DE0117960190FB
:1007B0000D928A95E1F7CE0107960E946C17811180
:1007C0003EC086E0FE013796DE01119601900D9243
:1007D0008A95E1F7FF81E8856A857B85611571055A
:1007E00031F0EF3F31F481E0FF3F19F403C081E0C5
:1007F00001C080E080FD23C02091EF0130E0C901FD
:100800000196877099274091200250E08417950740
:1008100079F1F983EA837D836C8396E0929FD0011E
:10082000939FB00D1124A051BE4FFE01319601904F
:100830000D929A95E1F78093EF010E94F61616E06B
:10084000809120029091EF018917F9F0189FC00163
:10085000112480519E4F0E946C178823B1F0809123
:10086000200290E001968770992780932002E8CFBC
:100870000E94471D1092EF0110922002E9EEF1E074
:1008800086E0DF011D928A95E9F767960FB6F89426
:10089000DEBF0FBECDBFDF91CF911F910895209194
:1008A0006D0130916E012817390771F090936E0138
:1008B00080936D01E0917C01F0917D01309721F0F2
:1008C0000084F185E02D0994089520916B01309109
:1008D0006C012817390771F090936C0180936B01BC
:1008E000E0917C01F0917D01309721F00680F78145
:1008F000E02D09940895E0917C01F0917D013097FD
:1009000021F00190F081E02D099480E008955F923C
:100910006F927F928F929F92AF92BF92CF92DF920F
:10092000EF92FF920F931F93CF93DF936BE071E0F1
:1009300020E030E0612C01E010E0D6E7ED2ED1E0C0
:10094000FD2EDB018D91BD01E82FE295EF70F0E007
:1009500041A18F70E80102C0CC0FDD1F8A95E2F73C
:10096000CE014C2B41A352A14C2F4095542352A3AE
:10097000D0EADA95F1F7D801022E01C0AA0F0A9445
:10098000EAF77A2E5A2F5095A2E7B1E0CFE0AC2ECD
:10099000C1E0BC2E912C8C90E50159905E01C52CD4
:1009A000C2949FE0C922D12CE601C8A0D12CD52D3C
:1009B000DF7002C0D594C794DA95E2F7D82DC0FC59
:1009C00002C0D72901C0D5238D1619F0DC939924D4
:1009D00093941196EA16FB06F1F691A1492341A3DF
:1009E00092A1892B82A369282F5F3F4F24303105C4
:1009F00009F0A7CF662049F081E0809368010E944A
:100A0000151B90936701809366018091680188238C
:100A1000D1F080916601909167010E94061B0697B4
:100A200090F08091720180937F0180917301809397
:100A30008001809174018093810180917501809380
:100A4000820110926801862DDF91CF911F910F9145
:100A5000FF90EF90DF90CF90BF90AF909F908F90DE
:100A60007F906F905F900895CF93DF93E72FF0E032
:100A700024E0829FE00DF11D1124EE0FFF1FEE0F09
:100A8000FF1FE60FF11DEE0FFF1FE95EFE4FC59140
:100A9000D491CE01C238D10569F1B0F4C133D1058A
:100AA00009F475C048F4C932D10509F469C0CA32E5
:100AB000D10509F473C085C0C533D10509F459C007
:100AC000C933D105B9F07DC0C33ED10571F138F409
:100AD000C03ED105B1F0C23ED10511F172C0C63E93
:100AE000D105B9F1C73ED105C9F1C43ED10509F020
:100AF00068C024C020917A0120FD5DC021FD5BC04B
:100B000060C020917A0120FD50C020917B0120FF20
:100B100051C180917A0184FD4BC183EE90E04AC1BE
:100B200020917A0122FF46C1F4CF80917A0182FDA3
:100B30003FC080917B0180FD3EC0EBCF20917B01C7
:100B400021FF38C180917A0184FD32C187EE90E0A7
:100B500031C120917A0123FF2DC1F4CF80917A0118
:100B600083FD2CC080917B0181FFECCF84EE90E06F
:100B700021C120917A0125FF1DC189E290E01AC1AF
:100B800020917A0125FF16C185E390E013C12091E1
:100B90007A0126FF0FC18AE290E00CC120917A0110
:100BA00026FF08C181E390E005C189E390E002C11E
:100BB00082EE90E0FFC080EE90E0FCC086EE90E018
:100BC000F9C0C11551E5D50708F06CC0C11520E585
:100BD000D207F0F0CE01F4E096958795FA95E1F70B
:100BE000282F23703C2F337081E090E002C0880FE3
:100BF000991F3A95E2F79C68922B2C2F2F7026951F
:100C0000269540E2249F90011124822B932BD2C081
:100C1000C83ED10570F5C03ED10508F0CBC0C83A3A
:100C2000D105B8F4C53AD10550F02C2F255AC22F62
:100C3000D0E0CE5CDE4F888190E09064BBC0C130D4
:100C4000D10509F4B7C008F4B3C0249708F4B0C0C4
:100C5000B1C0CF3BD10508F0ABC02C2F285AC22F12
:100C6000D0E0CC0FDD1FCB5CDE4F8881998194648E
:100C7000A1C0C11540E2D40760F4C11551E0D50709
:100C800008F098C0C03FD10508F492C0CE0190652D
:100C900091C0C11580E4D80708F48AC0CE019F70C6
:100CA000906A88C0C11595E5D90708F040C0C11504
:100CB00024E5D20728F09C2F8827846F906A7AC099
:100CC000C11543E5D407A8F09E012370332781E0C6
:100CD00090E002C0880F991F2A95E2F72C2F2695E5
:100CE000269540E2249F90011124822B932B9A6831
:100CF00061C0C11552E5D50728F49C2F8827816F64
:100D0000906A58C09E012370332781E090E002C0B2
:100D1000880F991F2A95E2F72C2F2695269550E2E9
:100D2000259F90011124822B932B9C6843C0C115F1
:100D300089E5D807B0F4C11598E5D90728F09C2FAC
:100D40008827806F906A36C0C11526E5D20780F5E6
:100D50008C2F0E94F6028F7190E0982F8827906266
:100D600029C0C1154AE5D40790F48C2F8F700E94DA
:100D7000F6029E0194E0369527959A95E1F72F703B
:100D800030E0322F22273069A901482B0FC0CE0155
:100D900090568115904260F48D2F8F710E94F6025B
:100DA0009E01332730628F71A901582BCA0102C0FE
:100DB00080E090E0DF91CF9108958F929F92AF9263
:100DC000BF92CF92DF92EF92FF920F931F93CF9338
:100DD000DF93CDB7DEB72A970FB6F894DEBF0FBE0C
:100DE000CDBFFC01D080118183819481892B39F0A2
:100DF0001F3F39F491E00FEFD01203C003C091E020
:100E000001C090E090FDE6C47F0185E0DE0116960A
:100E100001900D928A95E1F7F70122818E819F81E1
:100E2000222349F00E94E115082F682F8E819F81AF
:100E30000E94591603C00E942E16082FE12FF0E0E1
:100E400014E0019FE00DF11D1124EE0FFF1FEE0FC6
:100E5000FF1FED0DF11DEE0FFF1FE95EFE4F059127
:100E60001491033F2CE5120741F190F4083D8CE505
:100E70001807E9F0093D9CE5190789F1073DECE504
:100E80001E07B1F506E221EE41EE67ED7CE52CC0D0
:100E9000053FFCE51F07E9F0B0F0063F3CE513070E
:100EA00039F507E225EE46EE66EF7CE51DC007E268
:100EB00025EE45EE68ED7CE517C006E221EE40EE3A
:100EC00063EF7CE511C007E225EE44EE64EF7CE5BC
:100ED0000BC006E221EE42EE65EF7CE505C008E2BC
:100EE00021E045EE69ED7CE5C7010E94390353C45A
:100EF000F7018281882309F43FC110926F0102300B
:100F0000FCE51F0708F422C106312CE5120738F072
:100F100098012A5F3C452930310508F017C10E942D
:100F2000751C90937B0180937A0100313CE5130797
:100F300009F4C3C008F041C008309CE5190709F462
:100F40009AC0F0F40430FCE51F0709F487C068F488
:100F500002303CE5130709F477C003301C4509F063
:100F6000E5C080917A01826076C006309CE5190761
:100F700009F46EC008F07BC080917A0188606BC074
:100F80000C30FCE51F0709F485C068F40A303CE525
:100F9000130709F474C008F079C00E94471D8091BE
:100FA0007A01806858C00E309CE5190709F476C0B4
:100FB00008F07FC080917A018BC00B3FFCE51F07D2
:100FC00009F44FC018F503313CE5130709F47DC05F
:100FD00078F401319CE5190709F473C002311C450E
:100FE00009F0A4C00E94471D80917A018F7733C019
:100FF0000531FCE51F0709F472C008F486C00A3FFA
:101000001C4509F093C080917B013EC00F3F8CE5E9
:10101000180709F45FC058F40D3FECE51E0709F40A
:1010200044C008F43FC080917B0182602DC0013034
:101030002DE5120709F475C008F45DC002301D45A6
:1010400009F074C060E06EC080917A01816003C0D5
:1010500080917A01806180937A0168C080917A01E1
:1010600011C080917B01826080937B015FC0809181
:101070007A018062F0CF80917A018064ECCF809118
:101080007A0188608460E7CF8160EECF80917A0139
:101090008E7FE1CF80917A018D7FDDCF80917A01C3
:1010A000877FD9CF80917B0118C080917B018D7F94
:1010B000DBCF80917A018F7ECECF80917A018F7DB8
:1010C000CACF80917A018F7BC6CF80917A01877FCA
:1010D0008B7FC1CF80917B018D7F8E7FC5CF80912B
:1010E0007A0182FB222720F991E0922790FB82F976
:1010F00090FB83F9B0CF80917B01982F90959170F0
:101100008E7F892B90FB81F9AFCF0E94471D809184
:101110007A0187FB222720F991E0922790FB87F93B
:101120009ACF61E08EE090E00E94AA1E60917A0161
:1011300010917B0184E090E00E94AA1E612F81E261
:1011400090E00E94AA1E0E94471D25C306312CE58F
:10115000120719F580912E028A7A91E009F490E045
:1011600090937001882311F065E301C069E289EC76
:1011700091E00E942F1C0EC006311C4509F04AC0A8
:1011800080917001882309F423C365E389EC91E021
:101190000E94F61B0E945D15FEC201309CE51907F6
:1011A00019F10E3DECE51E0791F101151C4591F575
:1011B0000E94471D0FEF14E32CE001501040204027
:1011C000E1F700C0000087E797E79093010880935C
:1011D00000089AE088E10FB6F894A8958093600023
:1011E0000FBE90936000FFCF80919301982F909550
:1011F000917090FB80F980939301992319F086E018
:1012000091E002C084EF90E00E945402C4C20E94A8
:10121000861CC1C2F70100811181882349F0C801F1
:101220000E94E115D82E682FC8010E94591604C0EB
:10123000C8010E942E16D82EB8018D2D0E943405AB
:101240008C01982EF701A580A2943FE0A322D280C2
:10125000D11010922D0280912B02877099F0DD2021
:1012600089F0812F807F803421F080E2800F8830E8
:1012700048F082E00E94B21680912B028770CC2445
:10128000C3948111C12CB12EB2942FE0B2228B2DC8
:1012900090E08C30910508F040C2FC01EA5AFF4F03
:1012A0000C94FE1E812F807F1F70882311F01295F1
:1012B000107FDD20B9F0112309F41AC280E2800FFB
:1012C000883010F0911006C080912E02182B1093D8
:1012D0002E0205C080912D02182B10932D020E9422
:1012E0005D1506C2802F0E94711D112309F415C2DD
:1012F000005E1095083010F0911006C080912E020B
:10130000182310932E0205C080912D0218231093EC
:101310002D020E945D1501C2812F807F1F708032D7
:1013200011F01295107F992021F0F1E09F16E1F065
:101330002AC0DD2081F080912F02AA2051F001E027
:10134000A01207C0182B181709F4E7C110932F0239
:10135000E4C1812B10C0AA2021F021E0A21609F4DB
:10136000DCC10E94FB1C27C0DD2041F035E03A15AE
:1013700008F4D3C1812F0E94671DCFC184E08A1574
:1013800008F4CBC118C0DD2049F0AA2099F3F70179
:10139000858180FFADC18F708583ECCFAA2059F085
:1013A000093309F0B7C1FFEF17EE23E0F150104009
:1013B0002040E1F7ADC1812F0E945C1DAEC1812F9D
:1013C00086958695837019F0813059F0A6C1DD208D
:1013D00019F0C801937002C080E090E00E9465049B
:1013E000A2C1DD2019F0C801937002C080E090E036
:1013F0000E944F0498C1802FDD2019F00E94781AB6
:1014000002C00E94B1190E94211B8DC1812F8370DF
:1014100009F069C0D11085C1902F9295969597706B
:10142000990F990F802F8F70882E912CA12CB12CA1
:10143000092E04C0880C991CAA1CBB1C0A94D2F764
:1014400004FF12C04FE050E060E070E004C0440FC1
:10145000551F661F771F9A95D2F7DB01CA01809549
:101460009095A095B09503C080E090E0DC011695C2
:101470001695412F4370423019F1C8F400913002A3
:10148000109131022091320230913302413059F0F3
:1014900088299929AA29BB29BC01CD016023712380
:1014A000822393230AC0802A912AA22AB32ABC014C
:1014B000CD01682979298A299B290E94EC1631C11E
:1014C00088299929AA29BB2900913002109131025B
:1014D0002091320230913302BC01CD016027712787
:1014E00082279327EACFDD2019F0812F817001C078
:1014F0008695882309F415C1902F9295969597703B
:10150000990F990F802F8F70882E912CA12CB12CC0
:10151000092E04C0880C991CAA1CBB1C0A94D2F783
:1015200004FF12C04FE050E060E070E004C0440FE0
:10153000551F661F771F9A95D2F7DB01CA01809568
:101540009095A095B09503C080E090E0DC011695E1
:101550001695412F43704230D9F068F5009176011D
:10156000109177012091780130917901413059F043
:1015700088299929AA29BB29BC01CD01602371239F
:10158000822393231EC0802A912AA22AB32A13C041
:1015900088299929AA29BB29009176011091770100
:1015A0002091780130917901BC01CD01602771272C
:1015B0008227932706C0BC01CD01682979298A2991
:1015C0009B290E948316ADC01F70DD2039F0812F4A
:1015D0000E94CB16802F0E94671DA3C0802F0E94FF
:1015E0005C1D812F0E948D169CC0802F32EF9316B8
:1015F00009F440C0391538F090EF991661F0E1EF29
:101600009E1699F170C0F3EF9F16D9F124EF921650
:1016100009F44EC068C0DD2019F134E03A1508F431
:101620007CC01F7181E090E0A0E0B0E0AC01BD01A2
:1016300004C0440F551F661F771F1A95D2F780917B
:10164000760190917701A0917801B09179018A019A
:101650009B01082719272A273B27C901B80125C064
:1016600025E02A1508F459C0DCCFDD2029F0812FB0
:101670008F712CC0DD20D9F3812F8F710E948D16C0
:101680004CC0DD2079F01F7181E090E0A0E0B0E077
:10169000BC01CD0104C0660F771F881F991F1A95E2
:1016A000D2F703C060E070E0CB010E94831635C022
:1016B000DD2079F01F71812F0E94CB1638E0139F37
:1016C000C0011124836080932B02812F0E94CB16CE
:1016D00024C081E00E94B21681E08A15F0F482E015
:1016E0000E94B2161AC0DD2039F0AA2009F4BFCF3B
:1016F000802F0E94D81D11C0AA2009F4BDCF8933C4
:1017000049F49FEFE7EEF3E09150E040F040E1F75D
:1017100000C00000802F0E94711D88EF8B0D843067
:1017200010F40E947B04CC20A9F080912B0280FD54
:1017300011C0F70112828595859585950E94CB167B
:10174000C7010E94DD0680912B02859585958595C0
:101750000E948D1685E0F701DE01119601900D9231
:101760008A95E1F789819A810E942E16EA81F0E03C
:1017700004E0809FE00DF11D1124EE0FFF1FEE0F1E
:10178000FF1F8981E80FF11DEE0FFF1FE95EFE4F7D
:10179000859194911FC080912B028770D9F0F70139
:1017A00082818823B9F082E02A960FB6F894DEBFD2
:1017B0000FBECDBFDF91CF911F910F91FF90EF90A2
:1017C000DF90CF90BF90AF909F908F900C94B21607
:1017D00069E2DCCC2A960FB6F894DEBF0FBECDBF0F
:1017E000DF91CF911F910F91FF90EF90DF90CF90FD
:1017F000BF90AF909F908F9008959FB7F8941092EC
:1018000098019FBF9091BF01943009F057C090910B
:10181000E9009F703091EC00232F217030FD20E80B
:10182000922B23E02093E9002091EB0020FF43C09E
:101830002091EE0027FF3FC020917101222321F06B
:101840002091E80025FF37C01092710126E0309109
:10185000E80035FD15C03091BF01343061F530919D
:10186000EB0035FD28C0215021F481E08093710107
:1018700022C0EFE9FFE03197F1F700C00000E7CFA9
:101880008093F1008091E80085FD0AC08091E80016
:1018900080FFFCCF8091E8008E778093E80006C03F
:1018A0008FB7F89421E0209398018FBF9F70909399
:1018B000E90080E008959F709093E9008FEF08950C
:1018C000BC0184E00C947E19BC0183E00C947E1969
:1018D0002091E4003091E50095E64091EC00842FE2
:1018E000817040FF23C08091E80080FD1DC0809181
:1018F000BF01882399F0853099F08091EB0085FD38
:1019000011C04091E4005091E5002417350729F3F8
:10191000915011F09A01E1CF84E0089582E008959A
:1019200083E0089581E0089580E008954091E80003
:1019300042FFDDCF08958091C10187FF11C08091E2
:10194000E80082FD05C08091BF018111F8CF11C070
:101950008091E8008B770BC08091BF01882349F00C
:101960008091E80080FFF8CF8091E8008E77809327
:10197000E8000895982F973068F59093E90098173C
:1019800039F07091EC002091ED005091F00003C00F
:10199000242F762F50E021FD02C09F5FECCF3091C5
:1019A000EB003E7F3093EB003091ED003D7F3093B4
:1019B000ED003091EB0031603093EB007093EC0060
:1019C0002093ED005093F0002091EE0027FDE5CF2D
:1019D00080E008958F708093E90081E00895209160
:1019E000C7013091C8012617370748F06115710506
:1019F00039F42091E8002E772093E80001C0B90166
:101A0000FC0120E06115710579F18091BF01882307
:101A1000F1F18530F1F18091E80083FD3CC08091C7
:101A2000E80082FD2EC08091E80080FFEBCF20917E
:101A3000F3008091F20090E0922B6115710551F056
:101A40008830910538F421912093F100615071099B
:101A50000196F3CF21E0089709F020E08091E8009B
:101A60008E778093E800CECF2111CFCF0AC080912E
:101A7000BF01882361F0853061F08091E80083FD2B
:101A80000AC08091E80082FFF2CF80E0089582E0F2
:101A9000089583E0089581E00895CF93DF93CDB753
:101AA000DEB764970FB6F894DEBF0FBECDBF84B724
:101AB000877F84BF0FB6F894A895809160008861F5
:101AC00080936000109260000FBE90E080E80FB637
:101AD000F89480936100909361000FBE85B7806891
:101AE00085BF85B7806885BF0E94B0130E94CF1361
:101AF0008091E20084608093E2008DEF9BE0909300
:101B000065018093640178948091BF018823A1F0DE
:101B10001091E9001F709091EC00892F817090FD69
:101B200080E8182B1092E9008091E80083FD0E9464
:101B300095101F701093E90082E084BD93E095BD7D
:101B40009AEF97BD80936E00ABE0B1E04FE051E0BB
:101B500061E070E08D91E82FE295EF70F0E021A157
:101B60008F708B0102C0000F111F8A95E2F7C80128
:101B7000902F9095922391A392A1892B82A34A172B
:101B80005B0741F7AFE0B1E043E151E061E070E0B5
:101B90008D91E82FE295EF70F0E021A18F708B011D
:101BA00002C0000F111F8A95E2F7C801902F90958F
:101BB000922391A392A1892B82A34A175B0741F735
:101BC0001092720110927F011092730110928001A5
:101BD000109274011092810110927501109282018D
:101BE00080E090E00E94A41E8C3E9E4F11F00E9467
:101BF000861C80E090E00E94A41E8C3E9E4F11F057
:101C00000E94861C82E090E00E949C1E80939301BB
:101C10000E94751C90937B0180937A0183E090E091
:101C20000E949C1E682F70E080E090E00E94EC16FD
:101C300084988C9A85988D9A8FB1829581707D99C0
:101C400002C090E001C092E0892B8093850180E082
:101C500091E090937D0180937C0183E791E00E9465
:101C6000540227E5422E21E0522E3324339438E1EA
:101C7000632E712C8091BF01853009F03BC08FE647
:101C800091E00E9454028091BF01843011F11092C2
:101C90007E0180E40FB6F894A895609260000FBEB4
:101CA0008093600083B7817F846083BF83B7816046
:101CB00083BF7894889583B78E7F83BF0FB6F894DF
:101CC000A895809160008861809360001092600008
:101CD0000FBE8091BE01882309F4CCCF0E948704F7
:101CE000EFE7F1E081918111D4C131E0E338F307EE
:101CF000C9F7C0CF0E94870494E9A92E91E0B92EBC
:101D00000FE711E01A8B098B00E010E00C8BE989DA
:101D1000FA892190FA8BE98BF50181915F01822587
:101D20008B8B811116C00F5F1F4F0430110571F7A7
:101D30008FEF8C878D871E860E94151B8160782F00
:101D4000988B8F874C855D856E8588890E94B3034B
:101D50005EC08091930181FD04C080E0FF24F39474
:101D600039C086E491E00E9454028FE7882E81E01A
:101D7000982EE12CF12CFF92EF9221E431E03F9379
:101D80002F930E94ED028EE391E00E945402F40131
:101D900081914F010E94E91C1F928F9329E331E04A
:101DA0003F932F930E94ED0287E391E00E9454023B
:101DB0008FEFE81AF80A0FB6F894DEBF0FBECDBF5A
:101DC000F4E0EF16F104B9F6C8CF8F5FFF0C843052
:101DD00009F4A9CF9B899F21C1F38F832C89288780
:101DE0002F2081E009F480E089870E94151B816023
:101DF000782F9B878A874F81588569858B850E94BC
:101E0000B303F801EC56FE4F8081F826F0828091F2
:101E10008501E82FEE0FEE0FE09385018FB184FB73
:101E2000CC24C0F8D12C7D9903C080E090E002C0A2
:101E300082E090E08C299D298E2B809385018F7004
:101E4000E82FF0E0ED5EFE4F908180918401890FD4
:101E5000843024F0909183019F5F05C08D3F2CF466
:101E600090918301915090938301837887FF03C001
:101E700081508C6F8F5F8093840186E0ECE8F1E005
:101E8000DE01119601900D928A95E1F7E0908E01A6
:101E9000F0908F01009190011091910110928E01AC
:101EA00010928F011092900110929101E11003C0E5
:101EB000FF2009F44FC080918A0190918B010E940C
:101EC000061B9C0190918901992309F4F8C02333E2
:101ED000310508F43FC09F3F19F09F5F909389013F
:101EE000EE2061F00E94581A1E1414F09FEF01C0FA
:101EF00091E0899F802D112480938E01FF2061F055
:101F00000E94581A1F1414F09FEF01C091E0899F9E
:101F1000802D112480938F0130918E013323D1F0D5
:101F200020918F012223B1F045EB3403C00111242D
:101F3000992319F090938E0102C030928E0135EBF7
:101F40002303C0011124992319F090938F0102C03B
:101F500030928F01011103C0112309F44FC0809109
:101F60008701909188010E94061B9C019091860137
:101F7000992309F4A9C02536310508F43FC09F3FD5
:101F800019F09F5F90938601002361F00E94361A3A
:101F9000101614F09FEF01C091E0899F802D11244D
:101FA00080939001112361F00E94361A111614F0EB
:101FB0009FEF01C091E0899F802D112480939101B2
:101FC000309190013323D1F0209191012223B1F07F
:101FD00045EB3403C0011124992319F0909390012B
:101FE00002C03092900135EB2303C00111249923E4
:101FF00019F09093910102C03092910180918E016D
:1020000081110BC080918F01811107C080919001D7
:10201000811103C08091910181110E94211BEB82EB
:10202000FC820D831E8386E0FE013196ACE8B1E0B0
:1020300001900D928A95E1F70E947B0490919201A4
:10204000891709F417CE0E947B04182F8093920100
:102050008091930182FF0ECE80FF04C08CE591E059
:102060000E9454028091930180FF0AC01F921F9327
:102070005F924F920E94ED020F900F900F900F9081
:102080008091930180FFF6CD85E591E00E94540296
:10209000F1CD80E189BD82E189BD09B400FEFDCFAB
:1020A0008091D8008F7D8093D8008091E00082607D
:1020B0008093E0008091E00081FDFCCFDBCD2D32EC
:1020C000314008F00ACF46CF2D32314008F059CFC9
:1020D00095CFEF92FF920F931F93CF93DF937C01E5
:1020E0008B010E94680C811119C0E70101151105CF
:1020F000A1F08091E80085FD0AC08091E8008E770C
:102100008093E8000E94680C882381F307C08991BE
:102110008093F10001501109E9CF80E0DF91CF9168
:102120001F910F91FF90EF9008951F93CF93DF932E
:10213000CDB7DEB7AA970FB6F894DEBF0FBECDBFFE
:10214000E1ECF1E089EC91E02091F10021938E1710
:102150009F07D1F78091C201833009F460C030F449
:10216000813071F0823009F49AC0B1C08A3009F42C
:1021700086C08B3009F46BC0893009F0A8C020C03C
:102180008091C101813A09F0A2C08091E800877F67
:102190008093E8008091C5019091C601892B21F4BC
:1021A00060E28DE991E003C060E080E090E070E0E3
:1021B0000E94EF0C8091E8008B778093E80087C045
:1021C0008091C101813209F082C08091C501909156
:1021D000C601029708F07BC08091E800877F80935A
:1021E000E8008091E80082FD05C08091BF01811167
:1021F000F8CF6DC02091F3008091F20090E0922B17
:10220000029729F48091F1008B7F813021F4809135
:10221000F10080939C018091E8008B7754C08091FD
:10222000C101813A09F053C08091C5019091C60166
:10223000892B09F04CC08091E800877F8093E800EB
:102240008091E80080FFFCCF80910A0137C0809127
:10225000C1018132E1F58091C5019091C601892BC0
:10226000B1F58091E800877F8093E8000E949B0C85
:102270008091C30180930A010E94471D28C080916C
:10228000C101813221F58091E800877F8093E800C9
:102290000E949B0C8091C40180939B0118C0809187
:1022A000C101813AA1F48091E800877F8093E80022
:1022B0008091E80080FFFCCF80919B018093F1002A
:1022C0008091E8008E778093E8000E949B0C8091BB
:1022D000E80083FFE3C18091C1019091C201492FC1
:1022E00050E04A30510508F0D9C1FA01EE59FF4FCC
:1022F0000C94FE1E803821F0823809F0CFC108C04E
:102300008091BD019091BE01992389F082600FC038
:102310008091C5018F70873008F0C0C18093E900BB
:102320008091EB0085FB882780F91092E90090915D
:10233000E800977F9093E8008093F1001092F100FD
:102340007BC1282F2D7F09F0A9C1882319F0823085
:1023500061F0A4C18091C301813009F09FC1933025
:1023600009F080E08093BE012EC08091C3018111ED
:102370002AC08091C5018F702FEF280F263008F0FA
:102380008DC18093E9002091EB0020FF1CC09330A9
:1023900021F48091EB00806214C09091EB00906179
:1023A0009093EB0021E030E0A90102C0440F551FDB
:1023B0008A95E2F74093EA001092EA008091EB00E0
:1023C00088608093EB001092E9008091E800877F9D
:1023D0008093E8000E949B0C61C181115FC1109144
:1023E000C3011F778091E3008078812B8093E30005
:1023F0008091E800877F8093E8000E949B0C809189
:10240000E80080FFFCCF8091E30080688093E300C8
:10241000111102C082E001C083E08093BF013EC180
:102420008058823008F03AC12091C3013091C40134
:102430002C3D53E0350779F583E08A838AE289836E
:102440004FB7F894DE01139620E03EE051E2E32F0F
:10245000F0E050935700E49120FF03C0E295EF7045
:102460003F5FEF708E2F90E0EA3010F0C79601C00A
:10247000C0968D939D932F5F243149F74FBF809174
:10248000E800877F8093E8006AE270E0CE01019661
:102490000E94EF0CC0C08091C5019091C601432FEE
:1024A000552743305105B1F068F44130510509F426
:1024B00004C14230510509F0F1C08BE590E0E6EB34
:1024C000F2E057C04132510589F14232510509F419
:1024D0003CC0E4C0C901992781309105B9F070F082
:1024E00082309105D9F0039709F0D8C0E3E2F3E018
:1024F000E4918E2F90E0E3E2F3E038C0E9E5F3E009
:10250000E4918E2F90E0E9E5F3E030C0EBE3F3E0F7
:10251000E4918E2F90E0EBE3F3E028C0E9E2F3E0F2
:10252000E4918E2F90E0E9E2F3E020C08330910542
:1025300008F0B4C0880F991FFC01E45DFE4F0190C4
:10254000F081E02D89E090E014C08330910508F01F
:10255000A5C0FC01EE0FFF1FEA5DFE4F0190F08168
:10256000E02DDC01AD5DBE4F8C9190E0009709F449
:1025700095C02091E800277F2093E8002091C701B3
:102580003091C8012817390708F4C90140E00097C5
:1025900089F12091BF01222309F43DC02530D9F1F2
:1025A0002091E80023FD37C02091E80022FD2FC0D4
:1025B0002091E80020FFEBCF4091F3002091F20042
:1025C00030E0342B009759F02830310540F4449125
:1025D0004093F100319601972F5F3F4FF3CF41E0D9
:1025E0002830310509F040E02091E8002E77209353
:1025F000E800CDCF4111CDCF0AC08091BF01882323
:1026000051F0853041F08091E80083FD04C0809155
:10261000E80082FFF2CF8091E8008B778093E8009A
:102620003DC08038D9F58091E800877F8093E8002D
:102630008091C0018093F1008091E8008E77C8CE30
:1026400081112CC08091C3019091C40199270297F8
:102650002CF58091E800877F8093E8001091C301FA
:102660001093C0010E949B0C111106C08091E300E1
:1026700087FD02C081E001C084E08093BF0142E099
:1026800061EC81E00E94BA0C42E261EC82E00E94BF
:10269000BA0C42E261EC83E00E94BA0C8091E8003F
:1026A00083FF10C08091E800877F8093E8008091CD
:1026B000EB0080628093EB0005C082E190E0E1E1F5
:1026C000F3E057CFAA960FB6F894DEBF0FBECDBF8A
:1026D000DF91CF911F9108951F920F920FB60F9225
:1026E00011242F933F934F935F936F937F938F9317
:1026F0009F93AF93BF93CF93DF93EF93FF93C091DB
:10270000E900CF708091EC00D82FD17080FDD0E827
:102710001092E9008091F000877F8093F000789418
:102720000E9495101092E9008091F00088608093DB
:10273000F000CD2BCF70C093E900FF91EF91DF91B6
:10274000CF91BF91AF919F918F917F916F915F9149
:102750004F913F912F910F900FBE0F901F901895A2
:10276000E8EDF0E080818E7F80831092E20010928D
:10277000DA001092E100A0EEB0E08C9181608C93C1
:1027800080818F77808319BCA7EDB0E08C918E7F1C
:102790008C9380818F7E808310929A010895CF92CE
:1027A000DF92EF92FF920F931F93CF93DF93C8EDC9
:1027B000D0E088818F7E8883E7EDF0E080818160C2
:1027C000808384E082BF81E080939A0188818E7F3C
:1027D000888302EE10E0F80110821092DA0081EE98
:1027E000C82ED12CF601108288818F77888388814A
:1027F0008068888388818F7D888319BC1092BF018F
:102800001092C0011092BE011092BD0190EEE92E0F
:10281000F12CF70180818B7F8083888181608883A0
:1028200042E060E080E00E94BA0CF60180818E7F79
:102830008083F801808181608083808188608083CB
:10284000F70180818E7F8083888180618883DF911A
:10285000CF911F910F91FF90EF90DF90CF9008954F
:102860001F920F920FB60F9211242F933F934F9305
:102870005F936F937F938F939F93AF93BF93EF93E8
:10288000FF938091E10082FF49C08091E20082FFC6
:1028900045C08091E1008B7F8093E10020919901F8
:1028A0002F5F822F62E30E94DE1E992319F020938E
:1028B000990134C01092990180919801882371F197
:1028C0008091BF01843041F58091E9008F702091A3
:1028D000EC00922F917020FD90E8892B93E090936B
:1028E000E9009091EB0090FF14C09091EE0097FFEB
:1028F00010C09091E80095FF03C01092F100F9CF4D
:102900009091E80090FF05C09091E8009E77909329
:10291000E8008F708093E900109298018091DA00AE
:1029200080FF32C08091D80080FF2EC08091DA00F5
:102930008E7F8093DA008091D90080FF1CC080E1F7
:1029400089BD82E189BD09B400FEFDCF81E080939D
:10295000BF0182EA92E00E94540280919A018111A3
:1029600013C00E94B0130E94CF138091E2008460D4
:102970008093E20009C019BC1092BF0186EA92E080
:102980000E94540210929A018091E10080FF1BC0C6
:102990008091E20080FF17C08091E2008E7F8093DB
:1029A000E2008091E20080618093E2008091D80093
:1029B00080628093D80019BC85E08093BF018AEAC9
:1029C00092E00E9454028091E10084FF36C0809121
:1029D000E20084FF32C080E189BD82E189BD09B493
:1029E00000FEFDCF8091D8008F7D8093D80080912C
:1029F000E1008F7E8093E1008091E2008F7E8093E2
:102A0000E2008091E20081608093E2008091C00149
:102A1000882311F084E007C08091E30087FD02C0A5
:102A200081E001C083E08093BF018EEA92E00E94C2
:102A300054020E94471D0E947B048091E10083FFA5
:102A40002BC08091E20083FF27C08091E100877F47
:102A50008093E10082E08093BF011092C0018091D9
:102A6000E1008E7F8093E1008091E2008E7F809371
:102A7000E2008091E20080618093E20042E060E049
:102A800080E00E94BA0C8091F00088608093F00092
:102A900082EB92E00E945402FF91EF91BF91AF91BF
:102AA0009F918F917F916F915F914F913F912F9166
:102AB0000F900FBE0F901F901895EF92FF920F93FB
:102AC0001F93CF9390912E0280912D02892B2091FC
:102AD0002C02982F922B9093C90180912F0288236A
:102AE000D9F0892B8093C90180910A01882331F0A4
:102AF00080917A0187FF02C08EE101C086E0EBEC95
:102B0000F1E090E0815028F021912223D9F39F5FDA
:102B1000F9CF91110E94FB1CE0917C01F0917D01A5
:102B2000309709F448C080910A01882359F08091B8
:102B30007A0187FF07C08091C9018093CA0185E0AF
:102B40008093C9010280F381E02D89EC91E0099521
:102B50008091930182FF2FC080FF04C085E693E03F
:102B60000E94540209EC11E0C8E08FE5E82E83E0F2
:102B7000F82E8091930180FF0CC0F80180811F9294
:102B80008F93FF92EF920E94ED020F900F900F90A3
:102B90000F90C1500F5F1F4FC111EBCF8091930178
:102BA00080FF09C08DE593E0CF911F910F91FF90B9
:102BB000EF900C945402CF911F910F91FF90EF90E2
:102BC0000895BF92CF92DF92EF92FF920F931F93DF
:102BD000CF93DF938C01C0907601D0907701E09085
:102BE0007801F09079018091300290913102A091AA
:102BF0003202B0913302C82AD92AEA2AFB2ACFE14D
:102C0000D0E0D701C6010C2E04C0B695A7959795C4
:102C100087950A94D2F780FD04C0219790F7B12CD4
:102C200007C0BC2EB8018C2F0E9434050197A9F370
:102C30008B2DDF91CF911F910F91FF90EF90DF903F
:102C4000CF90BF900895CF93DF93EC010E94E115E0
:102C5000BE010E943405DF91CF910895990F990F1D
:102C6000890F682F669566956695982F977085E011
:102C7000689FB001112440E050E080E0FB01E40FC8
:102C8000F51FEF5DFD4F208130E0092E02C0369523
:102C900027950A94E2F721703327042E01C0220FF2
:102CA0000A94EAF7822B4F5F5F4F4530510531F7A9
:102CB0000895990F990F890FE82FE695E695E69507
:102CC000877051E001C0550F8A95EAF785E0E89FCB
:102CD000F0011124EF5DFD4F20E030E070E0408115
:102CE000CB01022E02C0969587950A94E2F7817077
:102CF000819584278523842781932F5F3F4F25303B
:102D0000310569F708956093760170937701809398
:102D10007801909379010C942A1D0F931F9341E041
:102D200050E060E070E004C0440F551F661F771F3D
:102D30008A95D2F74095509560957095809176016F
:102D400090917701A0917801B09179018A019B015E
:102D5000082319232A233B23C901B8011F910F918E
:102D60000C94831620912B028095822380932B0252
:102D7000982F977079F430E0482F082E000C550BEF
:102D80002417350739F08595859585950E948D1610
:102D900010922B0208950F931F9341E050E060E0E2
:102DA00070E004C0440F551F661F771F8A95D2F745
:102DB0008091760190917701A0917801B09179018D
:102DC0008A019B01082B192B2A2B3B2BC901B80127
:102DD0001F910F910C94831660933002709331020F
:102DE00080933202909333020C942A1D809120022A
:102DF0009091EF01891719F08F5F8770FBCF0895CD
:102E00000F931F93CF93DF938091EE0182958F7084
:102E100009F05DC08091EB01882309F458C08091CE
:102E200020021091EF016091E9017091EA01C091D7
:102E3000EC01D091ED0191E06F3F09F090E0292F76
:102E400006E0811709F443C0209721F07F3F21F06D
:102E500030E003C031E001C0322F90E030FD34C0DB
:102E6000089FF001099FF00D1124DF01A051BE4F12
:102E700011963C911197371327C03C91361324C00B
:102E800012963C91129731111FC013964D915C918F
:102E900014974C1B5D0B483C5105B0F48091EE013A
:102EA0008F7080618093EE01EB50FE4F80818F70B8
:102EB0008061808389EE91E00E94DD06DF91CF91F1
:102EC0001F910F910C94F61601968770BACFDF917F
:102ED000CF911F910F9108959F92AF92BF92CF9281
:102EE000DF92EF92FF920F931F93CF93DF93CDB7B3
:102EF000DEB761970FB6F894DEBF0FBECDBF8C0171
:102F000085E0F801DE011D9601900D928A95E1F7AA
:102F1000F80190818181E2803091E9016091EA01BC
:102F20004091EC015091ED014115510531F06F3F99
:102F300031F421E03F3F19F403C021E001C020E05B
:102F4000F22FF1709F2E20FD23C1F801C380D480A1
:102F500029EEA22E21E0B22EF090EB01F601E41B47
:102F6000F50BFF2009F4CEC02091EE01E83CF105FD
:102F700008F099C0422F407F09F051C0681311C07A
:102F800039130FC0FE2CE1100CC02F70206120936C
:102F9000EE01C5010E94DD068091EE01F8018583F6
:102FA00037C1CD2831F08F3F31F421E09F3F19F434
:102FB00003C021E001C020E020FD03C021E02E2558
:102FC00002C020E030E0F22FF170FF2E20FF1DC084
:102FD000209120024091EF0156E0241709F4F6C039
:102FE00030E0529FF001539FF00D1124E051FE4F4D
:102FF0006181861306C06081961303C06281E61268
:1030000004C02F5F3F4F2770E8CFFE2CEE2009F45D
:10301000FFC08091EE0181608093EE0150C0681383
:1030200007C0391305C0E11003C0F80125838DC026
:103030009D878E878D859E850E94011D882369F15D
:10304000EE2059F12091EE01822F82958F7090E051
:10305000029774F08091E9019091EA0198878F833B
:103060001986DB86CA862C87CE0107960E94DD066C
:1030700086E0F801A9EEB1E001900D928A95E1F7A2
:103080000E9400170DC06817E1F09D878E878D851F
:103090009E850E94011D81111EC0C8010E94DD068F
:1030A000FF24F394B5C0422F407F69F789EE91E089
:1030B0000E94DD0686E0F50111928A95E9F7F12C70
:1030C000A7C03913E2CFE110E0CFF8012583C80192
:1030D0000E94DD0657C0EE2001F32091EE01822F01
:1030E00082958F7090E002971CF28091E901909197
:1030F000EA019A8389831B82DD82CC822E83CE01F2
:103100000196B4CFE83CF105E8F5FE2CEE2029F25B
:10311000681327C0391325C02091EE0120FD18C087
:10312000822F82958F70482F50E04115510581F014
:10313000F80125834F30510541F08F5F982F92950C
:10314000907F822F8F70892B8583C8010E94DD06B6
:1031500086E0F801A9EEB1E001900D928A95E1F7C1
:1031600057C09D878E878D859E850E94011D811188
:103170007FCF8091EE0181608093EE01C8010E94B3
:10318000DD0646C086E0F50111928A95E9F740C058
:10319000EE2009F482CF9D878E878D859E850E94C3
:1031A000011DF82E882309F478CF86E0F801A9EEF6
:1031B000B1E001900D928A95E1F78091E90190913B
:1031C000EA010E9423160E94001722C09D878E8765
:1031D0008D859E850E942316292F22952F702230DF
:1031E00028F49F7039F0811105C00BC0243028F4F9
:1031F0009F7049F4805E883020F0C8010E94DD068F
:103200009F2CF92C05C0F8019581907F99F7F9CF93
:103210008F2D61960FB6F894DEBF0FBECDBFDF9144
:10322000CF911F910F91FF90EF90DF90CF90BF90C3
:10323000AF909F90089580919C01089522E0209383
:10324000E9002FEF3091E800215035FD06C035ED43
:103250003A95F1F700002111F5CF2091E80025FF04
:103260000BC040E050E066E070E00E946910809181
:10327000E8008E778093E8000895CF93DF93209144
:103280000A01222339F020917A0127FF03C060E26E
:1032900022E002C068E021E02093E9002FEF3091A6
:1032A000E800215035FD06C035ED3A95F1F70000F4
:1032B0002111F5CF2091E80025FF1DC0EC01809180
:1032C0000A01811105C040E050E068E070E003C0F1
:1032D00070E040E050E0CE010E9469108091E8006B
:1032E0008E778093E80080E2FE01ADE9B1E00190C5
:1032F0000D928A95E1F7DF91CF910895CF93DF93F7
:1033000000D01F92CDB7DEB79091BF01943019F570
:1033100089837B836A8382E08093E9008FEF9091B9
:10332000E800815095FD06C095ED9A95F1F70000F3
:103330008111F5CF8091E80085FF0DC040E050E09D
:1033400063E070E0CE0101960E9469108091E80070
:103350008E778093E8000F900F900F90DF91CF91C0
:103360000895803F39F480918F0187FF6AC01092E1
:103370008F0167C0813F29F480918F011816BCF33B
:1033800060C090918E01823F29F497FF5AC010923D
:103390008E0157C0833F19F41916CCF352C0909197
:1033A0009001893F31F419160CF04BC01092900136
:1033B00048C08A3F19F497FF44C0F8CF8B3F39F4D7
:1033C0008091910187FF3DC0109291013AC08C3FDE
:1033D00029F4809191011816BCF333C0843F21F485
:1033E00080918D018E7F17C0853F21F480918D01E2
:1033F0008D7F11C0863F21F480918D018B7F0BC0A2
:10340000873F21F480918D01877F05C0883F31F48B
:1034100080918D018F7E80938D0113C08D3F21F4AB
:10342000809138028E7F0BC08E3F21F4809138024C
:103430008D7F05C08F3F29F4809138028B7F809368
:10344000380280918E01811106C080918F01811117
:1034500002C01092890180919001811106C0809173
:103460009101811102C01092860108958091380265
:1034700080FD16C081FD16C082FD18C080918601B6
:10348000882391F0883290F428E0829FC0011124B3
:1034900068E270E00E94EA1E862F672B29F007C0C1
:1034A00082E0089584E0089581E0089588E0089519
:1034B0008091380280FD14C081FD14C082FD16C0C9
:1034C00080918901882381F0843180F422E3829FF6
:1034D000C001112464E170E00E94EA1E862F089565
:1034E0008CE0089589E1089585E0089582E30895C8
:1034F000803F21F40E94581A819504C0813F29F42D
:103500000E94581A80938F010895823F21F40E94EF
:10351000581A819504C0833F29F40E94581A809359
:103520008E010895893F19F40E94361A05C08A3F1A
:1035300031F40E94361A81958093900108958B3F53
:1035400021F40E94361A819504C08C3F29F40E9410
:10355000361A809391010895843F21F480918D0162
:10356000816017C0853F21F480918D01826011C078
:10357000863F21F480918D0184600BC0873F21F448
:1035800080918D01886005C0883F31F480918D0164
:10359000806180938D0108958D3F21F480913802E0
:1035A00081600BC08E3F21F480913802826005C09B
:1035B0008F3F29F480913802846080933802089507
:1035C00078941F920F920FB60F9211248F939F93AE
:1035D000AF93BF938091340290913502A09136024F
:1035E000B09137020196A11DB11D809334029093D2
:1035F0003502A0933602B0933702BF91AF919F91ED
:103600008F910F900FBE0F901F9018959C014FB790
:10361000F8948091340290913502A0913602B091D5
:1036200037024FBF821B930B08952FB7F8948091F8
:10363000340290913502A0913602B09137022FBF2B
:1036400008958091930183FF7EC08AED93E00E94EC
:10365000540280918D011F928F9385ED93E09F938B
:103660008F930E94ED0283ED93E00E9454028091BB
:103670008E01282F082E000C330B3F938F9380ED83
:1036800093E09F938F930E94ED028EEC93E00E9453
:10369000540280918F01282F082E000C330B3F938A
:1036A0008F938BEC93E09F938F930E94ED0289ECB4
:1036B00093E00E94540280919001282F082E000C64
:1036C000330B3F938F9386EC93E09F938F930E94ED
:1036D000ED0284EC93E00E94540280919101282F26
:1036E000082E000C330B3F938F9381EC93E09F9354
:1036F0008F930E94ED028EEB93E00E945402809122
:1037000089011F928F938BEB93E09F938F930E947D
:10371000ED0289EB93E00E945402809138021F92DF
:103720008F9386EB93E09F938F930E94ED0283EB40
:1037300093E00E9454028DB79EB74C960FB6F89452
:103740009EBF0FBE8DBF0E94151B20918E012111BF
:1037500004C020918F01222321F090938B0180934C
:103760008A0120919001211104C02091910122230E
:1037700021F09093880180938701E0917C01F09182
:103780007D01309749F082E080938C010480F581BF
:10379000E02D8CE891E0099408951F920F920FB6E6
:1037A0000F9211248F939F93AF93BF9380917E01CB
:1037B000811113C08091340290913502A09136029C
:1037C000B09137024196A11DB11D809334029093B0
:1037D0003502A0933602B0933702BF91AF919F910B
:1037E0008F910F900FBE0F901F90189520910A0196
:1037F000222351F120917A0127FF26C0262F2695FA
:10380000269526952E3178F4FC01E20FF11D6770A4
:1038100081E090E001C0880F6A95EAF78095928177
:103820008923828308958091930180FF17C01F929E
:103830006F9385E993E09F938F930E94ED020F9021
:103840000F900F900F900895FC010696228162134D
:1038500001C012823196E817F907C1F70895209147
:103860000A01222349F120917A0127FF25C0262F42
:103870002695269526952E3170F4FC01E20FF11D58
:10388000677081E090E001C0880F6A95EAF7928145
:10389000892B828308958091930180FF25C01F9218
:1038A0006F9387E793E09F938F930E94ED020F90B1
:1038B0000F900F900F900895FC0132962FEF30E09B
:1038C0004191641789F02F3F19F4411101C0232F52
:1038D0003F5F3630A9F72F3F39F0FC01E20FF11DB1
:1038E00027FDFA95628308950895CF9384E090E0D0
:1038F0000E949C1EC82F81E290E00E949C1E2C2FEB
:1039000030E0A901582BCA01CF9108956CEE7EEFEB
:1039100080E090E00E94C81E60E082E090E00E949B
:10392000AA1E60E083E090E00E94AA1E109230027E
:1039300010923102109232021092330260E084E061
:1039400090E00E94AA1E60E081E290E00E94AA1E20
:1039500060E085E090E00E94AA1E60E086E090E0D2
:103960000E94AA1E6FEF87E090E00E94AA1E40E02E
:1039700050E0BA0188E090E00E94BC1E60E08DE05B
:1039800090E00E94AA1E40E050E0BA0188E190E079
:103990000E94BC1E60E087E190E00E94AA1E40E009
:1039A00050E0BA018CE190E00E94BC1E60E080E231
:1039B00090E00E94AA1E40E050E0BA018FE090E043
:1039C0000E94BC1E40E050E0BA0183E190E00C94FC
:1039D000BC1E8295982F937344E0949F900111240C
:1039E0008C7C86958695282B822F8575880F2A7A60
:1039F0002695822B089580912F02811110922F021B
:103A000008950E942316292F2F70E92FE295EF7059
:103A10004E2F50E0FA013297EE30F105B8F4E45938
:103A2000FF4F0C94FE1E803F99F018F4883E70F40E
:103A30000FC0843F59F40CC0883E50F0813F31F4F0
:103A400007C0822F869586958695089580E0089513
:103A500081E0089510922D0210922C020E945D15B3
:103A6000ECE8F1E086E0DF011D928A95E9F710921B
:103A7000890110928601109238020E94211B80E079
:103A800090E00E94650480E090E00C944F04109256
:103A90002E0280910A01882331F080917A0187FFFC
:103AA00002C08EE101C086E0EBECF1E0DF011D9287
:103AB0008A95E9F70C942A1D882341F0809590910E
:103AC0002E02892380932E020C945D15089588237D
:103AD00039F090912E02892B80932E020C945D1563
:103AE0000895882309F463C0823869F40E947B0436
:103AF00081FF5DC069E389EC91E00E942F1C0E9468
:103B00005D1569E30EC0833891F40E947B0480FF49
:103B10004EC063E589EC91E00E942F1C0E945D1568
:103B200063E589EC91E00E94F61B0C945D158438E6
:103B300069F40E947B0482FF3AC067E489EC91E05B
:103B40000E942F1C0E945D1567E4EBCF9CEF980F3D
:103B5000913A10F4682FE5CF90E2980F983088F4EE
:103B6000877021E030E0A90102C0440F551F8A95FB
:103B7000E2F7CA01809590912E02892380932E024C
:103B8000D4CF9BE5980F933020F480E090E00C9424
:103B9000650498E5980F973120F480E090E00C944C
:103BA0004F04803F20F00E94B1190C94211B08950E
:103BB000CF93882309F4BEC0C82F8238B1F40E9485
:103BC0007B0481FDB7C069E389EC91E00E942F1C62
:103BD0000E945D152FEF81EE94E0215080409040CF
:103BE000E1F700C0000069E317C08338E1F40E94E8
:103BF0007B0480FD9FC063E589EC91E00E942F1C4F
:103C00000E945D152FEF81EE94E02150804090409E
:103C1000E1F700C0000063E589EC91E00E94F61B2B
:103C2000CF910C945D158438B1F40E947B0482FD21
:103C300081C067E489EC91E00E942F1C0E945D1511
:103C40002FEF81EE94E0215080409040E1F700C0DA
:103C5000000067E4E1CF8CEF8C0F813AC0F58091D2
:103C60000A018823E1F080917A0187FF18C0EC2FC8
:103C7000E695E695E695F0E0E753FE4F8281282F22
:103C800030E04C2F477081E090E002C0880F991F10
:103C90004A95E2F782239323892B61F412C0EBEC5F
:103CA000F1E081ED91E02191C21721F08E179F077D
:103CB000D1F707C06C2F89EC91E00E94F61B0E949F
:103CC0005D156C2F89EC91E00E942F1CA9CF80E23A
:103CD0008C0F883068F4C77081E090E001C0880FD5
:103CE000CA95EAF790912E02892B80932E0298CFE5
:103CF000EBE5EC0FE33040F4F0E0EE5CFE4F80814A
:103D000090E0CF910C946504E8E5EC0FE73150F4B6
:103D1000F0E0EE0FFF1FEB5CFE4F80819181CF91B1
:103D20000C944F04C03F30F08C2F0E94781ACF9132
:103D30000C94211BCF910895F999FECF92BD81BDBE
:103D4000F89A992780B50895A8E1B0E042E050E0E4
:103D50000C94D01E262FF999FECF92BD81BDF89A02
:103D6000019700B4021639F01FBA20BD0FB6F894BF
:103D7000FA9AF99A0FBE08950396272F0E94AB1E58
:103D80000E94AA1E252F0E94AB1E242F0C94AB1E4E
:103D90000196272F0E94AB1E0C94AA1EDC01CB01BA
:103DA000FC01F999FECF06C0F2BDE1BDF89A31964B
:103DB00000B40D9241505040B8F70895991B79E036
:103DC00004C0991F961708F0961B881F7A95C9F7AB
:103DD0008095089597FB072E16F4009407D077FD81
:103DE00009D00E94041F07FC05D03EF490958195F0
:103DF0009F4F0895709561957F4F0895EE0FFF1FB7
:103E00000590F491E02D0994AA1BBB1B51E107C05A
:103E1000AA1FBB1FA617B70710F0A61BB70B881F5A
:103E2000991F5A95A9F780959095BC01CD010895E9
:043E3000F894FFCF34
:103E34001B193D191E19640C600C01F7F69293943A
:103E440091C63500FF0100010000FFFF00000100E2
:103E540001FF0040BC226202A6018401C802E10203
:103E6400FA02818283E200E900EA00B500B600B7F5
:103E740000CD008301CC008A019201940121022328
:103E84000224022502260227022A02B300B4006F8C
:043E940000700000BA
:00000001FF
